{
  "address": "0x459b5D06310B0f5087568C07750D85Fb1cD4119F",
  "abi": [
    {
      "inputs": [
        {
          "internalType": "contract IERC20",
          "name": "_rewardToken",
          "type": "address"
        },
        {
          "internalType": "uint256",
          "name": "_rewardPerBlock",
          "type": "uint256"
        },
        {
          "internalType": "uint256",
          "name": "_startBlock",
          "type": "uint256"
        },
        {
          "internalType": "uint256",
          "name": "_bonusEndBlock",
          "type": "uint256"
        },
        {
          "internalType": "uint256",
          "name": "_multiplier",
          "type": "uint256"
        }
      ],
      "stateMutability": "nonpayable",
      "type": "constructor"
    },
    {
      "anonymous": false,
      "inputs": [
        {
          "indexed": true,
          "internalType": "address",
          "name": "user",
          "type": "address"
        },
        {
          "indexed": true,
          "internalType": "uint256",
          "name": "pid",
          "type": "uint256"
        },
        {
          "indexed": false,
          "internalType": "uint256",
          "name": "amount",
          "type": "uint256"
        }
      ],
      "name": "EmergencyWithdraw",
      "type": "event"
    },
    {
      "anonymous": false,
      "inputs": [
        {
          "indexed": true,
          "internalType": "address",
          "name": "previousOwner",
          "type": "address"
        },
        {
          "indexed": true,
          "internalType": "address",
          "name": "newOwner",
          "type": "address"
        }
      ],
      "name": "OwnershipTransferred",
      "type": "event"
    },
    {
      "anonymous": false,
      "inputs": [
        {
          "indexed": true,
          "internalType": "address",
          "name": "user",
          "type": "address"
        },
        {
          "indexed": true,
          "internalType": "uint256",
          "name": "pid",
          "type": "uint256"
        },
        {
          "indexed": false,
          "internalType": "uint256",
          "name": "amount",
          "type": "uint256"
        }
      ],
      "name": "Stake",
      "type": "event"
    },
    {
      "anonymous": false,
      "inputs": [
        {
          "indexed": true,
          "internalType": "address",
          "name": "user",
          "type": "address"
        },
        {
          "indexed": true,
          "internalType": "uint256",
          "name": "pid",
          "type": "uint256"
        },
        {
          "indexed": false,
          "internalType": "uint256",
          "name": "amount",
          "type": "uint256"
        },
        {
          "indexed": false,
          "internalType": "uint256",
          "name": "reward",
          "type": "uint256"
        }
      ],
      "name": "Withdraw",
      "type": "event"
    },
    {
      "inputs": [],
      "name": "BONUS_MULTIPLIER",
      "outputs": [
        {
          "internalType": "uint256",
          "name": "",
          "type": "uint256"
        }
      ],
      "stateMutability": "view",
      "type": "function"
    },
    {
      "inputs": [
        {
          "internalType": "uint256",
          "name": "_allocPoint",
          "type": "uint256"
        },
        {
          "internalType": "contract IERC20",
          "name": "_stakeToken",
          "type": "address"
        },
        {
          "internalType": "bool",
          "name": "_withUpdate",
          "type": "bool"
        }
      ],
      "name": "add",
      "outputs": [],
      "stateMutability": "nonpayable",
      "type": "function"
    },
    {
      "inputs": [],
      "name": "bonusEndBlock",
      "outputs": [
        {
          "internalType": "uint256",
          "name": "",
          "type": "uint256"
        }
      ],
      "stateMutability": "view",
      "type": "function"
    },
    {
      "inputs": [
        {
          "internalType": "uint256",
          "name": "_pid",
          "type": "uint256"
        }
      ],
      "name": "emergencyWithdraw",
      "outputs": [],
      "stateMutability": "nonpayable",
      "type": "function"
    },
    {
      "inputs": [
        {
          "internalType": "uint256",
          "name": "_from",
          "type": "uint256"
        },
        {
          "internalType": "uint256",
          "name": "_to",
          "type": "uint256"
        }
      ],
      "name": "getMultiplier",
      "outputs": [
        {
          "internalType": "uint256",
          "name": "",
          "type": "uint256"
        }
      ],
      "stateMutability": "view",
      "type": "function"
    },
    {
      "inputs": [
        {
          "internalType": "uint256",
          "name": "pid",
          "type": "uint256"
        },
        {
          "internalType": "address",
          "name": "user",
          "type": "address"
        }
      ],
      "name": "getStakingAmount",
      "outputs": [
        {
          "internalType": "uint256",
          "name": "",
          "type": "uint256"
        }
      ],
      "stateMutability": "view",
      "type": "function"
    },
    {
      "inputs": [],
      "name": "massUpdatePools",
      "outputs": [],
      "stateMutability": "nonpayable",
      "type": "function"
    },
    {
      "inputs": [],
      "name": "owner",
      "outputs": [
        {
          "internalType": "address",
          "name": "",
          "type": "address"
        }
      ],
      "stateMutability": "view",
      "type": "function"
    },
    {
      "inputs": [
        {
          "internalType": "uint256",
          "name": "_pid",
          "type": "uint256"
        },
        {
          "internalType": "address",
          "name": "_user",
          "type": "address"
        }
      ],
      "name": "pendingReward",
      "outputs": [
        {
          "internalType": "uint256",
          "name": "",
          "type": "uint256"
        }
      ],
      "stateMutability": "view",
      "type": "function"
    },
    {
      "inputs": [
        {
          "internalType": "uint256",
          "name": "",
          "type": "uint256"
        }
      ],
      "name": "poolInfo",
      "outputs": [
        {
          "internalType": "contract IERC20",
          "name": "stakeToken",
          "type": "address"
        },
        {
          "internalType": "uint256",
          "name": "allocPoint",
          "type": "uint256"
        },
        {
          "internalType": "uint256",
          "name": "lastRewardBlock",
          "type": "uint256"
        },
        {
          "internalType": "uint256",
          "name": "accCHNPerShare",
          "type": "uint256"
        },
        {
          "internalType": "uint256",
          "name": "totalAmountStake",
          "type": "uint256"
        }
      ],
      "stateMutability": "view",
      "type": "function"
    },
    {
      "inputs": [],
      "name": "poolLength",
      "outputs": [
        {
          "internalType": "uint256",
          "name": "",
          "type": "uint256"
        }
      ],
      "stateMutability": "view",
      "type": "function"
    },
    {
      "inputs": [],
      "name": "renounceOwnership",
      "outputs": [],
      "stateMutability": "nonpayable",
      "type": "function"
    },
    {
      "inputs": [],
      "name": "rewardPerBlock",
      "outputs": [
        {
          "internalType": "uint256",
          "name": "",
          "type": "uint256"
        }
      ],
      "stateMutability": "view",
      "type": "function"
    },
    {
      "inputs": [],
      "name": "rewardToken",
      "outputs": [
        {
          "internalType": "contract IERC20",
          "name": "",
          "type": "address"
        }
      ],
      "stateMutability": "view",
      "type": "function"
    },
    {
      "inputs": [
        {
          "internalType": "uint256",
          "name": "_pid",
          "type": "uint256"
        },
        {
          "internalType": "uint256",
          "name": "_allocPoint",
          "type": "uint256"
        },
        {
          "internalType": "bool",
          "name": "_withUpdate",
          "type": "bool"
        }
      ],
      "name": "set",
      "outputs": [],
      "stateMutability": "nonpayable",
      "type": "function"
    },
    {
      "inputs": [
        {
          "internalType": "uint256",
          "name": "_pid",
          "type": "uint256"
        },
        {
          "internalType": "uint256",
          "name": "_amount",
          "type": "uint256"
        }
      ],
      "name": "stake",
      "outputs": [],
      "stateMutability": "nonpayable",
      "type": "function"
    },
    {
      "inputs": [],
      "name": "startBlock",
      "outputs": [
        {
          "internalType": "uint256",
          "name": "",
          "type": "uint256"
        }
      ],
      "stateMutability": "view",
      "type": "function"
    },
    {
      "inputs": [],
      "name": "totalAllocPoint",
      "outputs": [
        {
          "internalType": "uint256",
          "name": "",
          "type": "uint256"
        }
      ],
      "stateMutability": "view",
      "type": "function"
    },
    {
      "inputs": [
        {
          "internalType": "address",
          "name": "newOwner",
          "type": "address"
        }
      ],
      "name": "transferOwnership",
      "outputs": [],
      "stateMutability": "nonpayable",
      "type": "function"
    },
    {
      "inputs": [
        {
          "internalType": "uint256",
          "name": "_pid",
          "type": "uint256"
        }
      ],
      "name": "updatePool",
      "outputs": [],
      "stateMutability": "nonpayable",
      "type": "function"
    },
    {
      "inputs": [
        {
          "internalType": "uint256",
          "name": "",
          "type": "uint256"
        },
        {
          "internalType": "address",
          "name": "",
          "type": "address"
        }
      ],
      "name": "userInfo",
      "outputs": [
        {
          "internalType": "uint256",
          "name": "amount",
          "type": "uint256"
        },
        {
          "internalType": "uint256",
          "name": "rewardDebt",
          "type": "uint256"
        },
        {
          "internalType": "uint256",
          "name": "pendingTokenReward",
          "type": "uint256"
        }
      ],
      "stateMutability": "view",
      "type": "function"
    },
    {
      "inputs": [
        {
          "internalType": "uint256",
          "name": "_pid",
          "type": "uint256"
        },
        {
          "internalType": "uint256",
          "name": "_amount",
          "type": "uint256"
        }
      ],
      "name": "withdraw",
      "outputs": [],
      "stateMutability": "nonpayable",
      "type": "function"
    }
  ],
  "transactionHash": "0x50ae3285f6c7541a6fef582e8f8a93d770153ea4489a6edfbec129d56e437122",
  "args": [
    "0x47974400432ADbCCAC6BdedAE73DDAaaFA91A5ec",
    "10000000000000000",
    "9945490",
    "9985430",
    "10"
  ],
  "solcInputHash": "16c8d215df54c4b50413f0c419ccf330",
  "bytecode": "0x608060405260006005553480156200001657600080fd5b5060405162001a4438038062001a448339810160408190526200003991620000da565b6200004d6200004762000086565b6200008a565b600180546001600160a01b0319166001600160a01b0396909616959095179094556002929092556007919091556006556008556200012f565b3390565b600080546001600160a01b038381166001600160a01b0319831681178455604051919092169283917f8be0079c531659141344cd1fd0a4f28419497f9722a3daafe3b4186f6b6457e09190a35050565b600080600080600060a08688031215620000f2578081fd5b85516001600160a01b038116811462000109578182fd5b602087015160408801516060890151608090990151929a91995097965090945092505050565b611905806200013f6000396000f3fe608060405234801561001057600080fd5b50600436106101825760003560e01c8063715018a6116100d85780638dbb1e3a1161008c578063b334946711610066578063b3349467146102d2578063f2fde38b146102e5578063f7c618c1146102f857610182565b80638dbb1e3a1461028a57806393f1a40b1461029d57806398969e82146102bf57610182565b80638aa28550116100bd5780638aa28550146102655780638ae39cac1461026d5780638da5cb5b1461027557610182565b8063715018a61461024a5780637b0472f01461025257610182565b8063441a3e701161013a5780635312ea8e116101145780635312ea8e1461021c578063630b5ba11461022f57806364482f791461023757610182565b8063441a3e70146101ee57806348cd4cb11461020157806351eb05a61461020957610182565b806317caf6f11161016b57806317caf6f1146101c95780631aed6553146101d15780631eaaa045146101d957610182565b8063081e3eda146101875780631526fe27146101a5575b600080fd5b61018f610300565b60405161019c9190611739565b60405180910390f35b6101b86101b3366004611389565b610306565b60405161019c9594939291906114f3565b61018f61035e565b61018f610364565b6101ec6101e73660046113d0565b61036a565b005b6101ec6101fc366004611411565b61055f565b61018f610744565b6101ec610217366004611389565b61074a565b6101ec61022a366004611389565b610834565b6101ec61093b565b6101ec610245366004611432565b610966565b6101ec610aac565b6101ec610260366004611411565b610b2b565b61018f610c80565b61018f610c86565b61027d610c8c565b60405161019c919061147b565b61018f610298366004611411565b610ca8565b6102b06102ab3660046113a1565b610d17565b60405161019c93929190611750565b61018f6102cd3660046113a1565b610d43565b61018f6102e03660046113a1565b610e7b565b6101ec6102f3366004611351565b610ed3565b61027d610f9c565b60035490565b6003818154811061031657600080fd5b60009182526020909120600590910201805460018201546002830154600384015460049094015473ffffffffffffffffffffffffffffffffffffffff90931694509092909185565b60055481565b60075481565b610372610fb8565b73ffffffffffffffffffffffffffffffffffffffff16610390610c8c565b73ffffffffffffffffffffffffffffffffffffffff16146103e6576040517f08c379a00000000000000000000000000000000000000000000000000000000081526004016103dd90611639565b60405180910390fd5b80156103f4576103f461093b565b6000600654431161040757600654610409565b435b6005549091506104199085610fbc565b60059081556040805160a08101825273ffffffffffffffffffffffffffffffffffffffff9586168152602081019687529081019283526000606082018181526080830182815260038054600181018255935292517fc2575a0e9e593c00f959f8c92f12db2869c3395a3b0502d05e2516446f71f85b9290940291820180547fffffffffffffffffffffffff000000000000000000000000000000000000000016949097169390931790955594517fc2575a0e9e593c00f959f8c92f12db2869c3395a3b0502d05e2516446f71f85c85015590517fc2575a0e9e593c00f959f8c92f12db2869c3395a3b0502d05e2516446f71f85d840155517fc2575a0e9e593c00f959f8c92f12db2869c3395a3b0502d05e2516446f71f85e8301555090517fc2575a0e9e593c00f959f8c92f12db2869c3395a3b0502d05e2516446f71f85f90910155565b60006003838154811061059b577f4e487b7100000000000000000000000000000000000000000000000000000000600052603260045260246000fd5b6000918252602080832086845260048252604080852033865290925292208054600590920290920192508311156105fe576040517f08c379a00000000000000000000000000000000000000000000000000000000081526004016103dd906116a5565b6106078461074a565b6000610641826001015461063b64e8d4a5100061063587600301548760000154610fcf90919063ffffffff16565b90610fdb565b90610fe7565b905061065a826002015482610fbc90919063ffffffff16565b83549091506106809073ffffffffffffffffffffffffffffffffffffffff163383610ff3565b6000600283015581546106939085610fe7565b825560048301546106a49085610fe7565b6004840155600383015482546106c49164e8d4a510009161063591610fcf565b600183015582546106ec9073ffffffffffffffffffffffffffffffffffffffff163386610ff3565b843373ffffffffffffffffffffffffffffffffffffffff167f02f25270a4d87bea75db541cdfe559334a275b4a233520ed6c0a2429667cca948684604051610735929190611742565b60405180910390a35050505050565b60065481565b600060038281548110610786577f4e487b7100000000000000000000000000000000000000000000000000000000600052603260045260246000fd5b90600052602060002090600502019050806002015443116107a75750610831565b6004810154806107be575043600290910155610831565b60006107ce836002015443610ca8565b905060006107fb60055461063586600101546107f560025487610fcf90919063ffffffff16565b90610fcf565b905061081e610813846106358464e8d4a51000610fcf565b600386015490610fbc565b6003850155505043600290920191909155505b50565b600060038281548110610870577f4e487b7100000000000000000000000000000000000000000000000000000000600052603260045260246000fd5b60009182526020808320858452600480835260408086203387529093529184208054858255600182018690556002820195909555600590930201908101549093509091906108be9082610fe7565b600484015582546108e69073ffffffffffffffffffffffffffffffffffffffff163383610ff3565b833373ffffffffffffffffffffffffffffffffffffffff167fbb757047c2b5f3974fe26b7c10f732e7bce710b0952a71082702781e62ae05958360405161092d9190611739565b60405180910390a350505050565b60035460005b81811015610962576109528161074a565b61095b81611837565b9050610941565b5050565b61096e610fb8565b73ffffffffffffffffffffffffffffffffffffffff1661098c610c8c565b73ffffffffffffffffffffffffffffffffffffffff16146109d9576040517f08c379a00000000000000000000000000000000000000000000000000000000081526004016103dd90611639565b80156109e7576109e761093b565b610a5182610a4b60038681548110610a28577f4e487b7100000000000000000000000000000000000000000000000000000000600052603260045260246000fd5b906000526020600020906005020160010154600554610fe790919063ffffffff16565b90610fbc565b6005819055508160038481548110610a92577f4e487b7100000000000000000000000000000000000000000000000000000000600052603260045260246000fd5b906000526020600020906005020160010181905550505050565b610ab4610fb8565b73ffffffffffffffffffffffffffffffffffffffff16610ad2610c8c565b73ffffffffffffffffffffffffffffffffffffffff1614610b1f576040517f08c379a00000000000000000000000000000000000000000000000000000000081526004016103dd90611639565b610b296000611099565b565b600060038381548110610b67577f4e487b7100000000000000000000000000000000000000000000000000000000600052603260045260246000fd5b60009182526020808320868452600482526040808520338652909252922060059091029091019150610b988461074a565b805415610be6576000610bcd826001015461063b64e8d4a5100061063587600301548760000154610fcf90919063ffffffff16565b6002830154909150610bdf9082610fbc565b6002830155505b6004820154610bf59084610fbc565b60048301558154610c1e9073ffffffffffffffffffffffffffffffffffffffff1633308661110e565b8054610c2a9084610fbc565b8082556003830154610c479164e8d4a51000916106359190610fcf565b6001820155604051849033907f5af417134f72a9d41143ace85b0a26dce6f550f894f2cbc1eeee8810603d91b69061092d908790611739565b60085481565b60025481565b60005473ffffffffffffffffffffffffffffffffffffffff1690565b60006007548211610ccb57600854610cc4906107f58486610fe7565b9050610d11565b6007548310610cde57610cc48284610fe7565b610cc4610cf660075484610fe790919063ffffffff16565b610a4b6008546107f587600754610fe790919063ffffffff16565b92915050565b600460209081526000928352604080842090915290825290208054600182015460029092015490919083565b60008060038481548110610d80577f4e487b7100000000000000000000000000000000000000000000000000000000600052603260045260246000fd5b600091825260208083208784526004808352604080862073ffffffffffffffffffffffffffffffffffffffff8a168752909352919093206003600590930290930191820154908201546002830154929450909143118015610de057508015155b15610e40576000610df5856002015443610ca8565b90506000610e1c60055461063588600101546107f560025487610fcf90919063ffffffff16565b9050610e3b610e34846106358464e8d4a51000610fcf565b8590610fbc565b935050505b610e708360020154610a4b856001015461063b64e8d4a51000610635888a60000154610fcf90919063ffffffff16565b979650505050505050565b600091825260046020908152604080842073ffffffffffffffffffffffffffffffffffffffff939093168452918152918190208151606081018352815480825260018301549482019490945260029091015491015290565b610edb610fb8565b73ffffffffffffffffffffffffffffffffffffffff16610ef9610c8c565b73ffffffffffffffffffffffffffffffffffffffff1614610f46576040517f08c379a00000000000000000000000000000000000000000000000000000000081526004016103dd90611639565b73ffffffffffffffffffffffffffffffffffffffff8116610f93576040517f08c379a00000000000000000000000000000000000000000000000000000000081526004016103dd9061157f565b61083181611099565b60015473ffffffffffffffffffffffffffffffffffffffff1681565b3390565b6000610fc88284611766565b9392505050565b6000610fc882846117b7565b6000610fc8828461177e565b6000610fc882846117f4565b6110948363a9059cbb60e01b84846040516024016110129291906114cd565b604080517fffffffffffffffffffffffffffffffffffffffffffffffffffffffffffffffe08184030181529190526020810180517bffffffffffffffffffffffffffffffffffffffffffffffffffffffff167fffffffff0000000000000000000000000000000000000000000000000000000090931692909217909152611135565b505050565b6000805473ffffffffffffffffffffffffffffffffffffffff8381167fffffffffffffffffffffffff0000000000000000000000000000000000000000831681178455604051919092169283917f8be0079c531659141344cd1fd0a4f28419497f9722a3daafe3b4186f6b6457e09190a35050565b61112f846323b872dd60e01b8585856040516024016110129392919061149c565b50505050565b6000611197826040518060400160405280602081526020017f5361666545524332303a206c6f772d6c6576656c2063616c6c206661696c65648152508573ffffffffffffffffffffffffffffffffffffffff166111eb9092919063ffffffff16565b80519091501561109457808060200190518101906111b5919061136d565b611094576040517f08c379a00000000000000000000000000000000000000000000000000000000081526004016103dd906116dc565b60606111fa8484600085611202565b949350505050565b60608247101561123e576040517f08c379a00000000000000000000000000000000000000000000000000000000081526004016103dd906115dc565b611247856112f8565b61127d576040517f08c379a00000000000000000000000000000000000000000000000000000000081526004016103dd9061166e565b6000808673ffffffffffffffffffffffffffffffffffffffff1685876040516112a6919061145f565b60006040518083038185875af1925050503d80600081146112e3576040519150601f19603f3d011682016040523d82523d6000602084013e6112e8565b606091505b5091509150610e708282866112fe565b3b151590565b6060831561130d575081610fc8565b82511561131d5782518084602001fd5b816040517f08c379a00000000000000000000000000000000000000000000000000000000081526004016103dd919061152e565b600060208284031215611362578081fd5b8135610fc88161189f565b60006020828403121561137e578081fd5b8151610fc8816118c1565b60006020828403121561139a578081fd5b5035919050565b600080604083850312156113b3578081fd5b8235915060208301356113c58161189f565b809150509250929050565b6000806000606084860312156113e4578081fd5b8335925060208401356113f68161189f565b91506040840135611406816118c1565b809150509250925092565b60008060408385031215611423578182fd5b50508035926020909101359150565b600080600060608486031215611446578283fd5b83359250602084013591506040840135611406816118c1565b6000825161147181846020870161180b565b9190910192915050565b73ffffffffffffffffffffffffffffffffffffffff91909116815260200190565b73ffffffffffffffffffffffffffffffffffffffff9384168152919092166020820152604081019190915260600190565b73ffffffffffffffffffffffffffffffffffffffff929092168252602082015260400190565b73ffffffffffffffffffffffffffffffffffffffff959095168552602085019390935260408401919091526060830152608082015260a00190565b600060208252825180602084015261154d81604085016020870161180b565b601f017fffffffffffffffffffffffffffffffffffffffffffffffffffffffffffffffe0169190910160400192915050565b60208082526026908201527f4f776e61626c653a206e6577206f776e657220697320746865207a65726f206160408201527f6464726573730000000000000000000000000000000000000000000000000000606082015260800190565b60208082526026908201527f416464726573733a20696e73756666696369656e742062616c616e636520666f60408201527f722063616c6c0000000000000000000000000000000000000000000000000000606082015260800190565b6020808252818101527f4f776e61626c653a2063616c6c6572206973206e6f7420746865206f776e6572604082015260600190565b6020808252601d908201527f416464726573733a2063616c6c20746f206e6f6e2d636f6e7472616374000000604082015260600190565b60208082526012908201527f77697468647261773a206e6f7420676f6f640000000000000000000000000000604082015260600190565b6020808252602a908201527f5361666545524332303a204552433230206f7065726174696f6e20646964206e60408201527f6f74207375636365656400000000000000000000000000000000000000000000606082015260800190565b90815260200190565b918252602082015260400190565b9283526020830191909152604082015260600190565b6000821982111561177957611779611870565b500190565b6000826117b2577f4e487b710000000000000000000000000000000000000000000000000000000081526012600452602481fd5b500490565b6000817fffffffffffffffffffffffffffffffffffffffffffffffffffffffffffffffff04831182151516156117ef576117ef611870565b500290565b60008282101561180657611806611870565b500390565b60005b8381101561182657818101518382015260200161180e565b8381111561112f5750506000910152565b60007fffffffffffffffffffffffffffffffffffffffffffffffffffffffffffffffff82141561186957611869611870565b5060010190565b7f4e487b7100000000000000000000000000000000000000000000000000000000600052601160045260246000fd5b73ffffffffffffffffffffffffffffffffffffffff8116811461083157600080fd5b801515811461083157600080fdfea2646970667358221220265c7143115e7cbadf0711a4b8edb886344e03ba4a1e7343e9cace1fef15bd8c64736f6c63430008000033",
  "devdoc": {
    "kind": "dev",
    "methods": {
      "owner()": {
        "details": "Returns the address of the current owner."
      },
      "renounceOwnership()": {
        "details": "Leaves the contract without owner. It will not be possible to call `onlyOwner` functions anymore. Can only be called by the current owner. NOTE: Renouncing ownership will leave the contract without an owner, thereby removing any functionality that is only available to the owner."
      },
      "transferOwnership(address)": {
        "details": "Transfers ownership of the contract to a new account (`newOwner`). Can only be called by the current owner."
      }
    },
    "version": 1
  },
  "userdoc": {
    "kind": "user",
    "methods": {},
    "version": 1
  },
  "storageLayout": {
    "storage": [
      {
        "astId": 7,
        "contract": "contracts/allocateStaking/CHNStaking.sol:CHNStaking",
        "label": "_owner",
        "offset": 0,
        "slot": "0",
        "type": "t_address"
      },
      {
        "astId": 3669,
        "contract": "contracts/allocateStaking/CHNStaking.sol:CHNStaking",
        "label": "rewardToken",
        "offset": 0,
        "slot": "1",
        "type": "t_contract(IERC20)728"
      },
      {
        "astId": 3671,
        "contract": "contracts/allocateStaking/CHNStaking.sol:CHNStaking",
        "label": "rewardPerBlock",
        "offset": 0,
        "slot": "2",
        "type": "t_uint256"
      },
      {
        "astId": 3675,
        "contract": "contracts/allocateStaking/CHNStaking.sol:CHNStaking",
        "label": "poolInfo",
        "offset": 0,
        "slot": "3",
        "type": "t_array(t_struct(PoolInfo)3666_storage)dyn_storage"
      },
      {
        "astId": 3682,
        "contract": "contracts/allocateStaking/CHNStaking.sol:CHNStaking",
        "label": "userInfo",
        "offset": 0,
        "slot": "4",
        "type": "t_mapping(t_uint256,t_mapping(t_address,t_struct(UserInfo)3654_storage))"
      },
      {
        "astId": 3685,
        "contract": "contracts/allocateStaking/CHNStaking.sol:CHNStaking",
        "label": "totalAllocPoint",
        "offset": 0,
        "slot": "5",
        "type": "t_uint256"
      },
      {
        "astId": 3687,
        "contract": "contracts/allocateStaking/CHNStaking.sol:CHNStaking",
        "label": "startBlock",
        "offset": 0,
        "slot": "6",
        "type": "t_uint256"
      },
      {
        "astId": 3689,
        "contract": "contracts/allocateStaking/CHNStaking.sol:CHNStaking",
        "label": "bonusEndBlock",
        "offset": 0,
        "slot": "7",
        "type": "t_uint256"
      },
      {
        "astId": 3691,
        "contract": "contracts/allocateStaking/CHNStaking.sol:CHNStaking",
        "label": "BONUS_MULTIPLIER",
        "offset": 0,
        "slot": "8",
        "type": "t_uint256"
      }
    ],
    "types": {
      "t_address": {
        "encoding": "inplace",
        "label": "address",
        "numberOfBytes": "20"
      },
      "t_array(t_struct(PoolInfo)3666_storage)dyn_storage": {
        "base": "t_struct(PoolInfo)3666_storage",
        "encoding": "dynamic_array",
        "label": "struct CHNStaking.PoolInfo[]",
        "numberOfBytes": "32"
      },
      "t_contract(IERC20)728": {
        "encoding": "inplace",
        "label": "contract IERC20",
        "numberOfBytes": "20"
      },
      "t_mapping(t_address,t_struct(UserInfo)3654_storage)": {
        "encoding": "mapping",
        "key": "t_address",
        "label": "mapping(address => struct CHNStaking.UserInfo)",
        "numberOfBytes": "32",
        "value": "t_struct(UserInfo)3654_storage"
      },
      "t_mapping(t_uint256,t_mapping(t_address,t_struct(UserInfo)3654_storage))": {
        "encoding": "mapping",
        "key": "t_uint256",
        "label": "mapping(uint256 => mapping(address => struct CHNStaking.UserInfo))",
        "numberOfBytes": "32",
        "value": "t_mapping(t_address,t_struct(UserInfo)3654_storage)"
      },
      "t_struct(PoolInfo)3666_storage": {
        "encoding": "inplace",
        "label": "struct CHNStaking.PoolInfo",
        "members": [
          {
            "astId": 3657,
            "contract": "contracts/allocateStaking/CHNStaking.sol:CHNStaking",
            "label": "stakeToken",
            "offset": 0,
            "slot": "0",
            "type": "t_contract(IERC20)728"
          },
          {
            "astId": 3659,
            "contract": "contracts/allocateStaking/CHNStaking.sol:CHNStaking",
            "label": "allocPoint",
            "offset": 0,
            "slot": "1",
            "type": "t_uint256"
          },
          {
            "astId": 3661,
            "contract": "contracts/allocateStaking/CHNStaking.sol:CHNStaking",
            "label": "lastRewardBlock",
            "offset": 0,
            "slot": "2",
            "type": "t_uint256"
          },
          {
            "astId": 3663,
            "contract": "contracts/allocateStaking/CHNStaking.sol:CHNStaking",
            "label": "accCHNPerShare",
            "offset": 0,
            "slot": "3",
            "type": "t_uint256"
          },
          {
            "astId": 3665,
            "contract": "contracts/allocateStaking/CHNStaking.sol:CHNStaking",
            "label": "totalAmountStake",
            "offset": 0,
            "slot": "4",
            "type": "t_uint256"
          }
        ],
        "numberOfBytes": "160"
      },
      "t_struct(UserInfo)3654_storage": {
        "encoding": "inplace",
        "label": "struct CHNStaking.UserInfo",
        "members": [
          {
            "astId": 3649,
            "contract": "contracts/allocateStaking/CHNStaking.sol:CHNStaking",
            "label": "amount",
            "offset": 0,
            "slot": "0",
            "type": "t_uint256"
          },
          {
            "astId": 3651,
            "contract": "contracts/allocateStaking/CHNStaking.sol:CHNStaking",
            "label": "rewardDebt",
            "offset": 0,
            "slot": "1",
            "type": "t_uint256"
          },
          {
            "astId": 3653,
            "contract": "contracts/allocateStaking/CHNStaking.sol:CHNStaking",
            "label": "pendingTokenReward",
            "offset": 0,
            "slot": "2",
            "type": "t_uint256"
          }
        ],
        "numberOfBytes": "96"
      },
      "t_uint256": {
        "encoding": "inplace",
        "label": "uint256",
        "numberOfBytes": "32"
      }
    }
  }
}