{
  "address": "0x52E88C8854b37fA5c481F5528dcE1699192F36fA",
  "abi": [
    {
      "inputs": [
        {
          "internalType": "contract IERC20",
          "name": "_rewardToken",
          "type": "address"
        },
        {
          "internalType": "uint256",
          "name": "_rewardPerBlock",
          "type": "uint256"
        },
        {
          "internalType": "uint256",
          "name": "_startBlock",
          "type": "uint256"
        },
        {
          "internalType": "uint256",
          "name": "_bonusEndBlock",
          "type": "uint256"
        },
        {
          "internalType": "uint256",
          "name": "_multiplier",
          "type": "uint256"
        }
      ],
      "stateMutability": "nonpayable",
      "type": "constructor"
    },
    {
      "anonymous": false,
      "inputs": [
        {
          "indexed": true,
          "internalType": "address",
          "name": "user",
          "type": "address"
        },
        {
          "indexed": true,
          "internalType": "uint256",
          "name": "pid",
          "type": "uint256"
        },
        {
          "indexed": false,
          "internalType": "uint256",
          "name": "amount",
          "type": "uint256"
        }
      ],
      "name": "EmergencyWithdraw",
      "type": "event"
    },
    {
      "anonymous": false,
      "inputs": [
        {
          "indexed": true,
          "internalType": "address",
          "name": "previousOwner",
          "type": "address"
        },
        {
          "indexed": true,
          "internalType": "address",
          "name": "newOwner",
          "type": "address"
        }
      ],
      "name": "OwnershipTransferred",
      "type": "event"
    },
    {
      "anonymous": false,
      "inputs": [
        {
          "indexed": true,
          "internalType": "address",
          "name": "user",
          "type": "address"
        },
        {
          "indexed": true,
          "internalType": "uint256",
          "name": "pid",
          "type": "uint256"
        },
        {
          "indexed": false,
          "internalType": "uint256",
          "name": "amount",
          "type": "uint256"
        }
      ],
      "name": "Stake",
      "type": "event"
    },
    {
      "anonymous": false,
      "inputs": [
        {
          "indexed": true,
          "internalType": "address",
          "name": "user",
          "type": "address"
        },
        {
          "indexed": true,
          "internalType": "uint256",
          "name": "pid",
          "type": "uint256"
        },
        {
          "indexed": false,
          "internalType": "uint256",
          "name": "amount",
          "type": "uint256"
        }
      ],
      "name": "Withdraw",
      "type": "event"
    },
    {
      "inputs": [],
      "name": "BONUS_MULTIPLIER",
      "outputs": [
        {
          "internalType": "uint256",
          "name": "",
          "type": "uint256"
        }
      ],
      "stateMutability": "view",
      "type": "function"
    },
    {
      "inputs": [
        {
          "internalType": "uint256",
          "name": "_allocPoint",
          "type": "uint256"
        },
        {
          "internalType": "contract IERC20",
          "name": "_stakeToken",
          "type": "address"
        },
        {
          "internalType": "bool",
          "name": "_withUpdate",
          "type": "bool"
        }
      ],
      "name": "add",
      "outputs": [],
      "stateMutability": "nonpayable",
      "type": "function"
    },
    {
      "inputs": [],
      "name": "bonusEndBlock",
      "outputs": [
        {
          "internalType": "uint256",
          "name": "",
          "type": "uint256"
        }
      ],
      "stateMutability": "view",
      "type": "function"
    },
    {
      "inputs": [
        {
          "internalType": "uint256",
          "name": "_pid",
          "type": "uint256"
        }
      ],
      "name": "emergencyWithdraw",
      "outputs": [],
      "stateMutability": "nonpayable",
      "type": "function"
    },
    {
      "inputs": [
        {
          "internalType": "uint256",
          "name": "_from",
          "type": "uint256"
        },
        {
          "internalType": "uint256",
          "name": "_to",
          "type": "uint256"
        }
      ],
      "name": "getMultiplier",
      "outputs": [
        {
          "internalType": "uint256",
          "name": "",
          "type": "uint256"
        }
      ],
      "stateMutability": "view",
      "type": "function"
    },
    {
      "inputs": [],
      "name": "massUpdatePools",
      "outputs": [],
      "stateMutability": "nonpayable",
      "type": "function"
    },
    {
      "inputs": [],
      "name": "owner",
      "outputs": [
        {
          "internalType": "address",
          "name": "",
          "type": "address"
        }
      ],
      "stateMutability": "view",
      "type": "function"
    },
    {
      "inputs": [
        {
          "internalType": "uint256",
          "name": "_pid",
          "type": "uint256"
        },
        {
          "internalType": "address",
          "name": "_user",
          "type": "address"
        }
      ],
      "name": "pendingReward",
      "outputs": [
        {
          "internalType": "uint256",
          "name": "",
          "type": "uint256"
        }
      ],
      "stateMutability": "view",
      "type": "function"
    },
    {
      "inputs": [
        {
          "internalType": "uint256",
          "name": "",
          "type": "uint256"
        }
      ],
      "name": "poolInfo",
      "outputs": [
        {
          "internalType": "contract IERC20",
          "name": "stakeToken",
          "type": "address"
        },
        {
          "internalType": "uint256",
          "name": "allocPoint",
          "type": "uint256"
        },
        {
          "internalType": "uint256",
          "name": "lastRewardBlock",
          "type": "uint256"
        },
        {
          "internalType": "uint256",
          "name": "accCHNPerShare",
          "type": "uint256"
        },
        {
          "internalType": "uint256",
          "name": "totalAmountStake",
          "type": "uint256"
        }
      ],
      "stateMutability": "view",
      "type": "function"
    },
    {
      "inputs": [],
      "name": "poolLength",
      "outputs": [
        {
          "internalType": "uint256",
          "name": "",
          "type": "uint256"
        }
      ],
      "stateMutability": "view",
      "type": "function"
    },
    {
      "inputs": [],
      "name": "renounceOwnership",
      "outputs": [],
      "stateMutability": "nonpayable",
      "type": "function"
    },
    {
      "inputs": [],
      "name": "rewardPerBlock",
      "outputs": [
        {
          "internalType": "uint256",
          "name": "",
          "type": "uint256"
        }
      ],
      "stateMutability": "view",
      "type": "function"
    },
    {
      "inputs": [],
      "name": "rewardToken",
      "outputs": [
        {
          "internalType": "contract IERC20",
          "name": "",
          "type": "address"
        }
      ],
      "stateMutability": "view",
      "type": "function"
    },
    {
      "inputs": [
        {
          "internalType": "uint256",
          "name": "_pid",
          "type": "uint256"
        },
        {
          "internalType": "uint256",
          "name": "_allocPoint",
          "type": "uint256"
        },
        {
          "internalType": "bool",
          "name": "_withUpdate",
          "type": "bool"
        }
      ],
      "name": "set",
      "outputs": [],
      "stateMutability": "nonpayable",
      "type": "function"
    },
    {
      "inputs": [
        {
          "internalType": "uint256",
          "name": "_pid",
          "type": "uint256"
        },
        {
          "internalType": "uint256",
          "name": "_amount",
          "type": "uint256"
        }
      ],
      "name": "stake",
      "outputs": [],
      "stateMutability": "nonpayable",
      "type": "function"
    },
    {
      "inputs": [],
      "name": "startBlock",
      "outputs": [
        {
          "internalType": "uint256",
          "name": "",
          "type": "uint256"
        }
      ],
      "stateMutability": "view",
      "type": "function"
    },
    {
      "inputs": [],
      "name": "totalAllocPoint",
      "outputs": [
        {
          "internalType": "uint256",
          "name": "",
          "type": "uint256"
        }
      ],
      "stateMutability": "view",
      "type": "function"
    },
    {
      "inputs": [
        {
          "internalType": "address",
          "name": "newOwner",
          "type": "address"
        }
      ],
      "name": "transferOwnership",
      "outputs": [],
      "stateMutability": "nonpayable",
      "type": "function"
    },
    {
      "inputs": [
        {
          "internalType": "uint256",
          "name": "_pid",
          "type": "uint256"
        }
      ],
      "name": "updatePool",
      "outputs": [],
      "stateMutability": "nonpayable",
      "type": "function"
    },
    {
      "inputs": [
        {
          "internalType": "uint256",
          "name": "",
          "type": "uint256"
        },
        {
          "internalType": "address",
          "name": "",
          "type": "address"
        }
      ],
      "name": "userInfo",
      "outputs": [
        {
          "internalType": "uint256",
          "name": "amount",
          "type": "uint256"
        },
        {
          "internalType": "uint256",
          "name": "rewardDebt",
          "type": "uint256"
        },
        {
          "internalType": "uint256",
          "name": "pendingTokenReward",
          "type": "uint256"
        }
      ],
      "stateMutability": "view",
      "type": "function"
    },
    {
      "inputs": [
        {
          "internalType": "uint256",
          "name": "_pid",
          "type": "uint256"
        },
        {
          "internalType": "uint256",
          "name": "_amount",
          "type": "uint256"
        }
      ],
      "name": "withdraw",
      "outputs": [],
      "stateMutability": "nonpayable",
      "type": "function"
    }
  ],
  "transactionHash": "0xd1ea936c17ead8eff9309686dc4cf69682139c235175efe571ba8edeeee3cc67",
  "args": [
    "0x47974400432ADbCCAC6BdedAE73DDAaaFA91A5ec",
    "10000000000000000",
    "9945490",
    "9985430",
    "10"
  ],
  "solcInputHash": "f0e8ceac5a4f6ee1433ea7664f1d2ddd",
  "bytecode": "0x608060405260006005553480156200001657600080fd5b50604051620019ba380380620019ba8339810160408190526200003991620000da565b6200004d6200004762000086565b6200008a565b600180546001600160a01b0319166001600160a01b0396909616959095179094556002929092556007919091556006556008556200012f565b3390565b600080546001600160a01b038381166001600160a01b0319831681178455604051919092169283917f8be0079c531659141344cd1fd0a4f28419497f9722a3daafe3b4186f6b6457e09190a35050565b600080600080600060a08688031215620000f2578081fd5b85516001600160a01b038116811462000109578182fd5b602087015160408801516060890151608090990151929a91995097965090945092505050565b61187b806200013f6000396000f3fe608060405234801561001057600080fd5b50600436106101775760003560e01c806364482f79116100d85780638da5cb5b1161008c57806398969e821161006657806398969e82146102b4578063f2fde38b146102c7578063f7c618c1146102da57610177565b80638da5cb5b1461026a5780638dbb1e3a1461027f57806393f1a40b1461029257610177565b80637b0472f0116100bd5780637b0472f0146102475780638aa285501461025a5780638ae39cac1461026257610177565b806364482f791461022c578063715018a61461023f57610177565b8063441a3e701161012f57806351eb05a61161011457806351eb05a6146101fe5780635312ea8e14610211578063630b5ba11461022457610177565b8063441a3e70146101e357806348cd4cb1146101f657610177565b806317caf6f11161016057806317caf6f1146101be5780631aed6553146101c65780631eaaa045146101ce57610177565b8063081e3eda1461017c5780631526fe271461019a575b600080fd5b6101846102e2565b60405161019191906116bd565b60405180910390f35b6101ad6101a836600461130d565b6102e8565b604051610191959493929190611477565b610184610340565b610184610346565b6101e16101dc366004611354565b61034c565b005b6101e16101f1366004611395565b610541565b610184610724565b6101e161020c36600461130d565b61072a565b6101e161021f36600461130d565b610814565b6101e1610909565b6101e161023a3660046113b6565b610934565b6101e1610a7a565b6101e1610255366004611395565b610af9565b610184610c5c565b610184610c62565b610272610c68565b60405161019191906113ff565b61018461028d366004611395565b610c84565b6102a56102a0366004611325565b610cf3565b604051610191939291906116c6565b6101846102c2366004611325565b610d1f565b6101e16102d53660046112d5565b610e57565b610272610f20565b60035490565b600381815481106102f857600080fd5b60009182526020909120600590910201805460018201546002830154600384015460049094015473ffffffffffffffffffffffffffffffffffffffff90931694509092909185565b60055481565b60075481565b610354610f3c565b73ffffffffffffffffffffffffffffffffffffffff16610372610c68565b73ffffffffffffffffffffffffffffffffffffffff16146103c8576040517f08c379a00000000000000000000000000000000000000000000000000000000081526004016103bf906115bd565b60405180910390fd5b80156103d6576103d6610909565b600060065443116103e9576006546103eb565b435b6005549091506103fb9085610f40565b60059081556040805160a08101825273ffffffffffffffffffffffffffffffffffffffff9586168152602081019687529081019283526000606082018181526080830182815260038054600181018255935292517fc2575a0e9e593c00f959f8c92f12db2869c3395a3b0502d05e2516446f71f85b9290940291820180547fffffffffffffffffffffffff000000000000000000000000000000000000000016949097169390931790955594517fc2575a0e9e593c00f959f8c92f12db2869c3395a3b0502d05e2516446f71f85c85015590517fc2575a0e9e593c00f959f8c92f12db2869c3395a3b0502d05e2516446f71f85d840155517fc2575a0e9e593c00f959f8c92f12db2869c3395a3b0502d05e2516446f71f85e8301555090517fc2575a0e9e593c00f959f8c92f12db2869c3395a3b0502d05e2516446f71f85f90910155565b60006003838154811061057d577f4e487b7100000000000000000000000000000000000000000000000000000000600052603260045260246000fd5b6000918252602080832086845260048252604080852033865290925292208054600590920290920192508311156105e0576040517f08c379a00000000000000000000000000000000000000000000000000000000081526004016103bf90611629565b6105e98461072a565b6000610623826001015461061d64e8d4a5100061061787600301548760000154610f5390919063ffffffff16565b90610f5f565b90610f6b565b905061063c826002015482610f4090919063ffffffff16565b83549091506106629073ffffffffffffffffffffffffffffffffffffffff163383610f77565b6000600283015581546106759085610f6b565b825560048301546106869085610f6b565b6004840155600383015482546106a69164e8d4a510009161061791610f53565b600183015582546106ce9073ffffffffffffffffffffffffffffffffffffffff163386610f77565b843373ffffffffffffffffffffffffffffffffffffffff167ff279e6a1f5e320cca91135676d9cb6e44ca8a08c0b88342bcdb1144f6511b5688660405161071591906116bd565b60405180910390a35050505050565b60065481565b600060038281548110610766577f4e487b7100000000000000000000000000000000000000000000000000000000600052603260045260246000fd5b90600052602060002090600502019050806002015443116107875750610811565b60048101548061079e575043600290910155610811565b60006107ae836002015443610c84565b905060006107db60055461061786600101546107d560025487610f5390919063ffffffff16565b90610f53565b90506107fe6107f3846106178464e8d4a51000610f53565b600386015490610f40565b6003850155505043600290920191909155505b50565b600060038281548110610850577f4e487b7100000000000000000000000000000000000000000000000000000000600052603260045260246000fd5b600091825260208083208584526004825260408085203380875293529093208054600590930290930180549094506108a29273ffffffffffffffffffffffffffffffffffffffff919091169190610f77565b805460048301546108b291610f6b565b60048301558054604051849133917fbb757047c2b5f3974fe26b7c10f732e7bce710b0952a71082702781e62ae0595916108eb916116bd565b60405180910390a36000808255600182018190556002909101555050565b60035460005b81811015610930576109208161072a565b610929816117ad565b905061090f565b5050565b61093c610f3c565b73ffffffffffffffffffffffffffffffffffffffff1661095a610c68565b73ffffffffffffffffffffffffffffffffffffffff16146109a7576040517f08c379a00000000000000000000000000000000000000000000000000000000081526004016103bf906115bd565b80156109b5576109b5610909565b610a1f82610a19600386815481106109f6577f4e487b7100000000000000000000000000000000000000000000000000000000600052603260045260246000fd5b906000526020600020906005020160010154600554610f6b90919063ffffffff16565b90610f40565b6005819055508160038481548110610a60577f4e487b7100000000000000000000000000000000000000000000000000000000600052603260045260246000fd5b906000526020600020906005020160010181905550505050565b610a82610f3c565b73ffffffffffffffffffffffffffffffffffffffff16610aa0610c68565b73ffffffffffffffffffffffffffffffffffffffff1614610aed576040517f08c379a00000000000000000000000000000000000000000000000000000000081526004016103bf906115bd565b610af7600061101d565b565b600060038381548110610b35577f4e487b7100000000000000000000000000000000000000000000000000000000600052603260045260246000fd5b60009182526020808320868452600482526040808520338652909252922060059091029091019150610b668461072a565b805415610bb4576000610b9b826001015461061d64e8d4a5100061061787600301548760000154610f5390919063ffffffff16565b6002830154909150610bad9082610f40565b6002830155505b6004820154610bc39084610f40565b60048301558154610bec9073ffffffffffffffffffffffffffffffffffffffff16333086611092565b8054610bf89084610f40565b8082556003830154610c159164e8d4a51000916106179190610f53565b6001820155604051849033907f5af417134f72a9d41143ace85b0a26dce6f550f894f2cbc1eeee8810603d91b690610c4e9087906116bd565b60405180910390a350505050565b60085481565b60025481565b60005473ffffffffffffffffffffffffffffffffffffffff1690565b60006007548211610ca757600854610ca0906107d58486610f6b565b9050610ced565b6007548310610cba57610ca08284610f6b565b610ca0610cd260075484610f6b90919063ffffffff16565b610a196008546107d587600754610f6b90919063ffffffff16565b92915050565b600460209081526000928352604080842090915290825290208054600182015460029092015490919083565b60008060038481548110610d5c577f4e487b7100000000000000000000000000000000000000000000000000000000600052603260045260246000fd5b600091825260208083208784526004808352604080862073ffffffffffffffffffffffffffffffffffffffff8a168752909352919093206003600590930290930191820154908201546002830154929450909143118015610dbc57508015155b15610e1c576000610dd1856002015443610c84565b90506000610df860055461061788600101546107d560025487610f5390919063ffffffff16565b9050610e17610e10846106178464e8d4a51000610f53565b8590610f40565b935050505b610e4c8360020154610a19856001015461061d64e8d4a51000610617888a60000154610f5390919063ffffffff16565b979650505050505050565b610e5f610f3c565b73ffffffffffffffffffffffffffffffffffffffff16610e7d610c68565b73ffffffffffffffffffffffffffffffffffffffff1614610eca576040517f08c379a00000000000000000000000000000000000000000000000000000000081526004016103bf906115bd565b73ffffffffffffffffffffffffffffffffffffffff8116610f17576040517f08c379a00000000000000000000000000000000000000000000000000000000081526004016103bf90611503565b6108118161101d565b60015473ffffffffffffffffffffffffffffffffffffffff1681565b3390565b6000610f4c82846116dc565b9392505050565b6000610f4c828461172d565b6000610f4c82846116f4565b6000610f4c828461176a565b6110188363a9059cbb60e01b8484604051602401610f96929190611451565b604080517fffffffffffffffffffffffffffffffffffffffffffffffffffffffffffffffe08184030181529190526020810180517bffffffffffffffffffffffffffffffffffffffffffffffffffffffff167fffffffff00000000000000000000000000000000000000000000000000000000909316929092179091526110b9565b505050565b6000805473ffffffffffffffffffffffffffffffffffffffff8381167fffffffffffffffffffffffff0000000000000000000000000000000000000000831681178455604051919092169283917f8be0079c531659141344cd1fd0a4f28419497f9722a3daafe3b4186f6b6457e09190a35050565b6110b3846323b872dd60e01b858585604051602401610f9693929190611420565b50505050565b600061111b826040518060400160405280602081526020017f5361666545524332303a206c6f772d6c6576656c2063616c6c206661696c65648152508573ffffffffffffffffffffffffffffffffffffffff1661116f9092919063ffffffff16565b805190915015611018578080602001905181019061113991906112f1565b611018576040517f08c379a00000000000000000000000000000000000000000000000000000000081526004016103bf90611660565b606061117e8484600085611186565b949350505050565b6060824710156111c2576040517f08c379a00000000000000000000000000000000000000000000000000000000081526004016103bf90611560565b6111cb8561127c565b611201576040517f08c379a00000000000000000000000000000000000000000000000000000000081526004016103bf906115f2565b6000808673ffffffffffffffffffffffffffffffffffffffff16858760405161122a91906113e3565b60006040518083038185875af1925050503d8060008114611267576040519150601f19603f3d011682016040523d82523d6000602084013e61126c565b606091505b5091509150610e4c828286611282565b3b151590565b60608315611291575081610f4c565b8251156112a15782518084602001fd5b816040517f08c379a00000000000000000000000000000000000000000000000000000000081526004016103bf91906114b2565b6000602082840312156112e6578081fd5b8135610f4c81611815565b600060208284031215611302578081fd5b8151610f4c81611837565b60006020828403121561131e578081fd5b5035919050565b60008060408385031215611337578081fd5b82359150602083013561134981611815565b809150509250929050565b600080600060608486031215611368578081fd5b83359250602084013561137a81611815565b9150604084013561138a81611837565b809150509250925092565b600080604083850312156113a7578182fd5b50508035926020909101359150565b6000806000606084860312156113ca578283fd5b8335925060208401359150604084013561138a81611837565b600082516113f5818460208701611781565b9190910192915050565b73ffffffffffffffffffffffffffffffffffffffff91909116815260200190565b73ffffffffffffffffffffffffffffffffffffffff9384168152919092166020820152604081019190915260600190565b73ffffffffffffffffffffffffffffffffffffffff929092168252602082015260400190565b73ffffffffffffffffffffffffffffffffffffffff959095168552602085019390935260408401919091526060830152608082015260a00190565b60006020825282518060208401526114d1816040850160208701611781565b601f017fffffffffffffffffffffffffffffffffffffffffffffffffffffffffffffffe0169190910160400192915050565b60208082526026908201527f4f776e61626c653a206e6577206f776e657220697320746865207a65726f206160408201527f6464726573730000000000000000000000000000000000000000000000000000606082015260800190565b60208082526026908201527f416464726573733a20696e73756666696369656e742062616c616e636520666f60408201527f722063616c6c0000000000000000000000000000000000000000000000000000606082015260800190565b6020808252818101527f4f776e61626c653a2063616c6c6572206973206e6f7420746865206f776e6572604082015260600190565b6020808252601d908201527f416464726573733a2063616c6c20746f206e6f6e2d636f6e7472616374000000604082015260600190565b60208082526012908201527f77697468647261773a206e6f7420676f6f640000000000000000000000000000604082015260600190565b6020808252602a908201527f5361666545524332303a204552433230206f7065726174696f6e20646964206e60408201527f6f74207375636365656400000000000000000000000000000000000000000000606082015260800190565b90815260200190565b9283526020830191909152604082015260600190565b600082198211156116ef576116ef6117e6565b500190565b600082611728577f4e487b710000000000000000000000000000000000000000000000000000000081526012600452602481fd5b500490565b6000817fffffffffffffffffffffffffffffffffffffffffffffffffffffffffffffffff0483118215151615611765576117656117e6565b500290565b60008282101561177c5761177c6117e6565b500390565b60005b8381101561179c578181015183820152602001611784565b838111156110b35750506000910152565b60007fffffffffffffffffffffffffffffffffffffffffffffffffffffffffffffffff8214156117df576117df6117e6565b5060010190565b7f4e487b7100000000000000000000000000000000000000000000000000000000600052601160045260246000fd5b73ffffffffffffffffffffffffffffffffffffffff8116811461081157600080fd5b801515811461081157600080fdfea2646970667358221220c7913c893c69878b75887ed6de1f04c0da841415446249cf688c0adaf35b9fbb64736f6c63430008000033",
  "devdoc": {
    "kind": "dev",
    "methods": {
      "owner()": {
        "details": "Returns the address of the current owner."
      },
      "renounceOwnership()": {
        "details": "Leaves the contract without owner. It will not be possible to call `onlyOwner` functions anymore. Can only be called by the current owner. NOTE: Renouncing ownership will leave the contract without an owner, thereby removing any functionality that is only available to the owner."
      },
      "transferOwnership(address)": {
        "details": "Transfers ownership of the contract to a new account (`newOwner`). Can only be called by the current owner."
      }
    },
    "version": 1
  },
  "userdoc": {
    "kind": "user",
    "methods": {},
    "version": 1
  },
  "storageLayout": {
    "storage": [
      {
        "astId": 7,
        "contract": "contracts/allocateStaking/CHNStaking.sol:CHNStaking",
        "label": "_owner",
        "offset": 0,
        "slot": "0",
        "type": "t_address"
      },
      {
        "astId": 3669,
        "contract": "contracts/allocateStaking/CHNStaking.sol:CHNStaking",
        "label": "rewardToken",
        "offset": 0,
        "slot": "1",
        "type": "t_contract(IERC20)728"
      },
      {
        "astId": 3671,
        "contract": "contracts/allocateStaking/CHNStaking.sol:CHNStaking",
        "label": "rewardPerBlock",
        "offset": 0,
        "slot": "2",
        "type": "t_uint256"
      },
      {
        "astId": 3675,
        "contract": "contracts/allocateStaking/CHNStaking.sol:CHNStaking",
        "label": "poolInfo",
        "offset": 0,
        "slot": "3",
        "type": "t_array(t_struct(PoolInfo)3666_storage)dyn_storage"
      },
      {
        "astId": 3682,
        "contract": "contracts/allocateStaking/CHNStaking.sol:CHNStaking",
        "label": "userInfo",
        "offset": 0,
        "slot": "4",
        "type": "t_mapping(t_uint256,t_mapping(t_address,t_struct(UserInfo)3654_storage))"
      },
      {
        "astId": 3685,
        "contract": "contracts/allocateStaking/CHNStaking.sol:CHNStaking",
        "label": "totalAllocPoint",
        "offset": 0,
        "slot": "5",
        "type": "t_uint256"
      },
      {
        "astId": 3687,
        "contract": "contracts/allocateStaking/CHNStaking.sol:CHNStaking",
        "label": "startBlock",
        "offset": 0,
        "slot": "6",
        "type": "t_uint256"
      },
      {
        "astId": 3689,
        "contract": "contracts/allocateStaking/CHNStaking.sol:CHNStaking",
        "label": "bonusEndBlock",
        "offset": 0,
        "slot": "7",
        "type": "t_uint256"
      },
      {
        "astId": 3691,
        "contract": "contracts/allocateStaking/CHNStaking.sol:CHNStaking",
        "label": "BONUS_MULTIPLIER",
        "offset": 0,
        "slot": "8",
        "type": "t_uint256"
      }
    ],
    "types": {
      "t_address": {
        "encoding": "inplace",
        "label": "address",
        "numberOfBytes": "20"
      },
      "t_array(t_struct(PoolInfo)3666_storage)dyn_storage": {
        "base": "t_struct(PoolInfo)3666_storage",
        "encoding": "dynamic_array",
        "label": "struct CHNStaking.PoolInfo[]",
        "numberOfBytes": "32"
      },
      "t_contract(IERC20)728": {
        "encoding": "inplace",
        "label": "contract IERC20",
        "numberOfBytes": "20"
      },
      "t_mapping(t_address,t_struct(UserInfo)3654_storage)": {
        "encoding": "mapping",
        "key": "t_address",
        "label": "mapping(address => struct CHNStaking.UserInfo)",
        "numberOfBytes": "32",
        "value": "t_struct(UserInfo)3654_storage"
      },
      "t_mapping(t_uint256,t_mapping(t_address,t_struct(UserInfo)3654_storage))": {
        "encoding": "mapping",
        "key": "t_uint256",
        "label": "mapping(uint256 => mapping(address => struct CHNStaking.UserInfo))",
        "numberOfBytes": "32",
        "value": "t_mapping(t_address,t_struct(UserInfo)3654_storage)"
      },
      "t_struct(PoolInfo)3666_storage": {
        "encoding": "inplace",
        "label": "struct CHNStaking.PoolInfo",
        "members": [
          {
            "astId": 3657,
            "contract": "contracts/allocateStaking/CHNStaking.sol:CHNStaking",
            "label": "stakeToken",
            "offset": 0,
            "slot": "0",
            "type": "t_contract(IERC20)728"
          },
          {
            "astId": 3659,
            "contract": "contracts/allocateStaking/CHNStaking.sol:CHNStaking",
            "label": "allocPoint",
            "offset": 0,
            "slot": "1",
            "type": "t_uint256"
          },
          {
            "astId": 3661,
            "contract": "contracts/allocateStaking/CHNStaking.sol:CHNStaking",
            "label": "lastRewardBlock",
            "offset": 0,
            "slot": "2",
            "type": "t_uint256"
          },
          {
            "astId": 3663,
            "contract": "contracts/allocateStaking/CHNStaking.sol:CHNStaking",
            "label": "accCHNPerShare",
            "offset": 0,
            "slot": "3",
            "type": "t_uint256"
          },
          {
            "astId": 3665,
            "contract": "contracts/allocateStaking/CHNStaking.sol:CHNStaking",
            "label": "totalAmountStake",
            "offset": 0,
            "slot": "4",
            "type": "t_uint256"
          }
        ],
        "numberOfBytes": "160"
      },
      "t_struct(UserInfo)3654_storage": {
        "encoding": "inplace",
        "label": "struct CHNStaking.UserInfo",
        "members": [
          {
            "astId": 3649,
            "contract": "contracts/allocateStaking/CHNStaking.sol:CHNStaking",
            "label": "amount",
            "offset": 0,
            "slot": "0",
            "type": "t_uint256"
          },
          {
            "astId": 3651,
            "contract": "contracts/allocateStaking/CHNStaking.sol:CHNStaking",
            "label": "rewardDebt",
            "offset": 0,
            "slot": "1",
            "type": "t_uint256"
          },
          {
            "astId": 3653,
            "contract": "contracts/allocateStaking/CHNStaking.sol:CHNStaking",
            "label": "pendingTokenReward",
            "offset": 0,
            "slot": "2",
            "type": "t_uint256"
          }
        ],
        "numberOfBytes": "96"
      },
      "t_uint256": {
        "encoding": "inplace",
        "label": "uint256",
        "numberOfBytes": "32"
      }
    }
  }
}