{
  "address": "0x70f2fc548B27597D2A3a72778F8471E40861Db23",
  "abi": [
    {
      "inputs": [
        {
          "internalType": "contract IERC20",
          "name": "_rewardToken",
          "type": "address"
        },
        {
          "internalType": "uint256",
          "name": "_rewardPerBlock",
          "type": "uint256"
        },
        {
          "internalType": "uint256",
          "name": "_startBlock",
          "type": "uint256"
        },
        {
          "internalType": "uint256",
          "name": "_bonusEndBlock",
          "type": "uint256"
        },
        {
          "internalType": "uint256",
          "name": "_multiplier",
          "type": "uint256"
        }
      ],
      "stateMutability": "nonpayable",
      "type": "constructor"
    },
    {
      "anonymous": false,
      "inputs": [
        {
          "indexed": true,
          "internalType": "address",
          "name": "user",
          "type": "address"
        },
        {
          "indexed": true,
          "internalType": "uint256",
          "name": "pid",
          "type": "uint256"
        },
        {
          "indexed": false,
          "internalType": "uint256",
          "name": "amount",
          "type": "uint256"
        }
      ],
      "name": "EmergencyWithdraw",
      "type": "event"
    },
    {
      "anonymous": false,
      "inputs": [
        {
          "indexed": true,
          "internalType": "address",
          "name": "previousOwner",
          "type": "address"
        },
        {
          "indexed": true,
          "internalType": "address",
          "name": "newOwner",
          "type": "address"
        }
      ],
      "name": "OwnershipTransferred",
      "type": "event"
    },
    {
      "anonymous": false,
      "inputs": [
        {
          "indexed": true,
          "internalType": "address",
          "name": "user",
          "type": "address"
        },
        {
          "indexed": true,
          "internalType": "uint256",
          "name": "pid",
          "type": "uint256"
        },
        {
          "indexed": false,
          "internalType": "uint256",
          "name": "amount",
          "type": "uint256"
        }
      ],
      "name": "Stake",
      "type": "event"
    },
    {
      "anonymous": false,
      "inputs": [
        {
          "indexed": true,
          "internalType": "address",
          "name": "user",
          "type": "address"
        },
        {
          "indexed": true,
          "internalType": "uint256",
          "name": "pid",
          "type": "uint256"
        },
        {
          "indexed": false,
          "internalType": "uint256",
          "name": "amount",
          "type": "uint256"
        }
      ],
      "name": "Withdraw",
      "type": "event"
    },
    {
      "inputs": [],
      "name": "BONUS_MULTIPLIER",
      "outputs": [
        {
          "internalType": "uint256",
          "name": "",
          "type": "uint256"
        }
      ],
      "stateMutability": "view",
      "type": "function"
    },
    {
      "inputs": [
        {
          "internalType": "uint256",
          "name": "_allocPoint",
          "type": "uint256"
        },
        {
          "internalType": "contract IERC20",
          "name": "_stakeToken",
          "type": "address"
        },
        {
          "internalType": "bool",
          "name": "_withUpdate",
          "type": "bool"
        }
      ],
      "name": "add",
      "outputs": [],
      "stateMutability": "nonpayable",
      "type": "function"
    },
    {
      "inputs": [],
      "name": "bonusEndBlock",
      "outputs": [
        {
          "internalType": "uint256",
          "name": "",
          "type": "uint256"
        }
      ],
      "stateMutability": "view",
      "type": "function"
    },
    {
      "inputs": [
        {
          "internalType": "uint256",
          "name": "_pid",
          "type": "uint256"
        }
      ],
      "name": "emergencyWithdraw",
      "outputs": [],
      "stateMutability": "nonpayable",
      "type": "function"
    },
    {
      "inputs": [
        {
          "internalType": "uint256",
          "name": "_from",
          "type": "uint256"
        },
        {
          "internalType": "uint256",
          "name": "_to",
          "type": "uint256"
        }
      ],
      "name": "getMultiplier",
      "outputs": [
        {
          "internalType": "uint256",
          "name": "",
          "type": "uint256"
        }
      ],
      "stateMutability": "view",
      "type": "function"
    },
    {
      "inputs": [],
      "name": "massUpdatePools",
      "outputs": [],
      "stateMutability": "nonpayable",
      "type": "function"
    },
    {
      "inputs": [],
      "name": "owner",
      "outputs": [
        {
          "internalType": "address",
          "name": "",
          "type": "address"
        }
      ],
      "stateMutability": "view",
      "type": "function"
    },
    {
      "inputs": [
        {
          "internalType": "uint256",
          "name": "_pid",
          "type": "uint256"
        },
        {
          "internalType": "address",
          "name": "_user",
          "type": "address"
        }
      ],
      "name": "pendingReward",
      "outputs": [
        {
          "internalType": "uint256",
          "name": "",
          "type": "uint256"
        }
      ],
      "stateMutability": "view",
      "type": "function"
    },
    {
      "inputs": [
        {
          "internalType": "uint256",
          "name": "",
          "type": "uint256"
        }
      ],
      "name": "poolInfo",
      "outputs": [
        {
          "internalType": "contract IERC20",
          "name": "stakeToken",
          "type": "address"
        },
        {
          "internalType": "uint256",
          "name": "allocPoint",
          "type": "uint256"
        },
        {
          "internalType": "uint256",
          "name": "lastRewardBlock",
          "type": "uint256"
        },
        {
          "internalType": "uint256",
          "name": "accCHNPerShare",
          "type": "uint256"
        }
      ],
      "stateMutability": "view",
      "type": "function"
    },
    {
      "inputs": [],
      "name": "poolLength",
      "outputs": [
        {
          "internalType": "uint256",
          "name": "",
          "type": "uint256"
        }
      ],
      "stateMutability": "view",
      "type": "function"
    },
    {
      "inputs": [],
      "name": "renounceOwnership",
      "outputs": [],
      "stateMutability": "nonpayable",
      "type": "function"
    },
    {
      "inputs": [],
      "name": "rewardPerBlock",
      "outputs": [
        {
          "internalType": "uint256",
          "name": "",
          "type": "uint256"
        }
      ],
      "stateMutability": "view",
      "type": "function"
    },
    {
      "inputs": [],
      "name": "rewardToken",
      "outputs": [
        {
          "internalType": "contract IERC20",
          "name": "",
          "type": "address"
        }
      ],
      "stateMutability": "view",
      "type": "function"
    },
    {
      "inputs": [
        {
          "internalType": "uint256",
          "name": "_pid",
          "type": "uint256"
        },
        {
          "internalType": "uint256",
          "name": "_allocPoint",
          "type": "uint256"
        },
        {
          "internalType": "bool",
          "name": "_withUpdate",
          "type": "bool"
        }
      ],
      "name": "set",
      "outputs": [],
      "stateMutability": "nonpayable",
      "type": "function"
    },
    {
      "inputs": [
        {
          "internalType": "uint256",
          "name": "_pid",
          "type": "uint256"
        },
        {
          "internalType": "uint256",
          "name": "_amount",
          "type": "uint256"
        }
      ],
      "name": "stake",
      "outputs": [],
      "stateMutability": "nonpayable",
      "type": "function"
    },
    {
      "inputs": [],
      "name": "startBlock",
      "outputs": [
        {
          "internalType": "uint256",
          "name": "",
          "type": "uint256"
        }
      ],
      "stateMutability": "view",
      "type": "function"
    },
    {
      "inputs": [],
      "name": "totalAllocPoint",
      "outputs": [
        {
          "internalType": "uint256",
          "name": "",
          "type": "uint256"
        }
      ],
      "stateMutability": "view",
      "type": "function"
    },
    {
      "inputs": [
        {
          "internalType": "address",
          "name": "newOwner",
          "type": "address"
        }
      ],
      "name": "transferOwnership",
      "outputs": [],
      "stateMutability": "nonpayable",
      "type": "function"
    },
    {
      "inputs": [
        {
          "internalType": "uint256",
          "name": "_pid",
          "type": "uint256"
        }
      ],
      "name": "updatePool",
      "outputs": [],
      "stateMutability": "nonpayable",
      "type": "function"
    },
    {
      "inputs": [
        {
          "internalType": "uint256",
          "name": "",
          "type": "uint256"
        },
        {
          "internalType": "address",
          "name": "",
          "type": "address"
        }
      ],
      "name": "userInfo",
      "outputs": [
        {
          "internalType": "uint256",
          "name": "amount",
          "type": "uint256"
        },
        {
          "internalType": "uint256",
          "name": "rewardDebt",
          "type": "uint256"
        }
      ],
      "stateMutability": "view",
      "type": "function"
    },
    {
      "inputs": [
        {
          "internalType": "uint256",
          "name": "_pid",
          "type": "uint256"
        },
        {
          "internalType": "uint256",
          "name": "_amount",
          "type": "uint256"
        }
      ],
      "name": "withdraw",
      "outputs": [],
      "stateMutability": "nonpayable",
      "type": "function"
    }
  ],
  "transactionHash": "0x1d5c74e18e1121e04a6373e0e4c4987019fde433982ee65331e2f22c90d3b338",
  "args": [
    "0x47974400432ADbCCAC6BdedAE73DDAaaFA91A5ec",
    "100",
    "9937135",
    "9938135",
    "10"
  ],
  "solcInputHash": "3346abec473adc2fead553fa5696ab21",
  "bytecode": "0x608060405260006005553480156200001657600080fd5b5060405162001bde38038062001bde8339810160408190526200003991620000da565b6200004d6200004762000086565b6200008a565b600180546001600160a01b0319166001600160a01b0396909616959095179094556002929092556007919091556006556008556200012f565b3390565b600080546001600160a01b038381166001600160a01b0319831681178455604051919092169283917f8be0079c531659141344cd1fd0a4f28419497f9722a3daafe3b4186f6b6457e09190a35050565b600080600080600060a08688031215620000f2578081fd5b85516001600160a01b038116811462000109578182fd5b602087015160408801516060890151608090990151929a91995097965090945092505050565b611a9f806200013f6000396000f3fe608060405234801561001057600080fd5b50600436106101775760003560e01c806364482f79116100d85780638da5cb5b1161008c57806398969e821161006657806398969e82146102b2578063f2fde38b146102c5578063f7c618c1146102d857610177565b80638da5cb5b146102695780638dbb1e3a1461027e57806393f1a40b1461029157610177565b80637b0472f0116100bd5780637b0472f0146102465780638aa28550146102595780638ae39cac1461026157610177565b806364482f791461022b578063715018a61461023e57610177565b8063441a3e701161012f57806351eb05a61161011457806351eb05a6146101fd5780635312ea8e14610210578063630b5ba11461022357610177565b8063441a3e70146101e257806348cd4cb1146101f557610177565b806317caf6f11161016057806317caf6f1146101bd5780631aed6553146101c55780631eaaa045146101cd57610177565b8063081e3eda1461017c5780631526fe271461019a575b600080fd5b6101846102e0565b60405161019191906118e9565b60405180910390f35b6101ad6101a83660046114f2565b6102e6565b6040516101919493929190611674565b610184610337565b61018461033d565b6101e06101db366004611551565b610343565b005b6101e06101f0366004611592565b610507565b61018461069e565b6101e061020b3660046114f2565b6106a4565b6101e061021e3660046114f2565b610831565b6101e0610907565b6101e06102393660046115b3565b610932565b6101e0610a78565b6101e0610254366004611592565b610af7565b610184610c3b565b610184610c41565b610271610c47565b60405161019191906115fc565b61018461028c366004611592565b610c63565b6102a461029f366004611522565b610cd2565b6040516101919291906118f2565b6101846102c0366004611522565b610cf6565b6101e06102d33660046114ba565b610eaf565b610271610f78565b60035490565b600381815481106102f657600080fd5b6000918252602090912060049091020180546001820154600283015460039093015473ffffffffffffffffffffffffffffffffffffffff9092169350919084565b60055481565b60075481565b61034b610f94565b73ffffffffffffffffffffffffffffffffffffffff16610369610c47565b73ffffffffffffffffffffffffffffffffffffffff16146103bf576040517f08c379a00000000000000000000000000000000000000000000000000000000081526004016103b6906117b2565b60405180910390fd5b80156103cd576103cd610907565b600060065443116103e0576006546103e2565b435b6005549091506103f29085610f98565b6005556040805160808101825273ffffffffffffffffffffffffffffffffffffffff94851681526020810195865290810191825260006060820181815260038054600181018255925291517fc2575a0e9e593c00f959f8c92f12db2869c3395a3b0502d05e2516446f71f85b600490920291820180547fffffffffffffffffffffffff000000000000000000000000000000000000000016919096161790945593517fc2575a0e9e593c00f959f8c92f12db2869c3395a3b0502d05e2516446f71f85c840155517fc2575a0e9e593c00f959f8c92f12db2869c3395a3b0502d05e2516446f71f85d8301555090517fc2575a0e9e593c00f959f8c92f12db2869c3395a3b0502d05e2516446f71f85e90910155565b600060038381548110610543577f4e487b7100000000000000000000000000000000000000000000000000000000600052603260045260246000fd5b60009182526020808320868452600480835260408086203387529093529190932080549290910290920192508311156105a8576040517f08c379a00000000000000000000000000000000000000000000000000000000081526004016103b69061181e565b6105b1846106a4565b60006105eb82600101546105e564e8d4a510006105df87600301548760000154610fab90919063ffffffff16565b90610fb7565b90610fc3565b90506105f73382610fcf565b81546106039085610fc3565b80835560038401546106209164e8d4a51000916105df9190610fab565b600183015582546106489073ffffffffffffffffffffffffffffffffffffffff163386611162565b843373ffffffffffffffffffffffffffffffffffffffff167ff279e6a1f5e320cca91135676d9cb6e44ca8a08c0b88342bcdb1144f6511b5688660405161068f91906118e9565b60405180910390a35050505050565b60065481565b6000600382815481106106e0577f4e487b7100000000000000000000000000000000000000000000000000000000600052603260045260246000fd5b9060005260206000209060040201905080600201544311610701575061082e565b80546040517f70a0823100000000000000000000000000000000000000000000000000000000815260009173ffffffffffffffffffffffffffffffffffffffff16906370a08231906107579030906004016115fc565b60206040518083038186803b15801561076f57600080fd5b505afa158015610783573d6000803e3d6000fd5b505050506040513d601f19601f820116820180604052508101906107a7919061150a565b9050806107bb57504360029091015561082e565b60006107cb836002015443610c63565b905060006107f86005546105df86600101546107f260025487610fab90919063ffffffff16565b90610fab565b905061081b610810846105df8464e8d4a51000610fab565b600386015490610f98565b6003850155505043600290920191909155505b50565b60006003828154811061086d577f4e487b7100000000000000000000000000000000000000000000000000000000600052603260045260246000fd5b600091825260208083208584526004808352604080862033808852945290942080549490930201805490945091926108bc9273ffffffffffffffffffffffffffffffffffffffff169190611162565b8054604051849133917fbb757047c2b5f3974fe26b7c10f732e7bce710b0952a71082702781e62ae0595916108f0916118e9565b60405180910390a360008082556001909101555050565b60035460005b8181101561092e5761091e816106a4565b610927816119d1565b905061090d565b5050565b61093a610f94565b73ffffffffffffffffffffffffffffffffffffffff16610958610c47565b73ffffffffffffffffffffffffffffffffffffffff16146109a5576040517f08c379a00000000000000000000000000000000000000000000000000000000081526004016103b6906117b2565b80156109b3576109b3610907565b610a1d82610a17600386815481106109f4577f4e487b7100000000000000000000000000000000000000000000000000000000600052603260045260246000fd5b906000526020600020906004020160010154600554610fc390919063ffffffff16565b90610f98565b6005819055508160038481548110610a5e577f4e487b7100000000000000000000000000000000000000000000000000000000600052603260045260246000fd5b906000526020600020906004020160010181905550505050565b610a80610f94565b73ffffffffffffffffffffffffffffffffffffffff16610a9e610c47565b73ffffffffffffffffffffffffffffffffffffffff1614610aeb576040517f08c379a00000000000000000000000000000000000000000000000000000000081526004016103b6906117b2565b610af56000611208565b565b600060038381548110610b33577f4e487b7100000000000000000000000000000000000000000000000000000000600052603260045260246000fd5b60009182526020808320868452600480835260408086203387529093529190932091029091019150610b64846106a4565b805415610ba7576000610b9982600101546105e564e8d4a510006105df87600301548760000154610fab90919063ffffffff16565b9050610ba53382610fcf565b505b8154610bcb9073ffffffffffffffffffffffffffffffffffffffff1633308661127d565b8054610bd79084610f98565b8082556003830154610bf49164e8d4a51000916105df9190610fab565b6001820155604051849033907f5af417134f72a9d41143ace85b0a26dce6f550f894f2cbc1eeee8810603d91b690610c2d9087906118e9565b60405180910390a350505050565b60085481565b60025481565b60005473ffffffffffffffffffffffffffffffffffffffff1690565b60006007548211610c8657600854610c7f906107f28486610fc3565b9050610ccc565b6007548310610c9957610c7f8284610fc3565b610c7f610cb160075484610fc390919063ffffffff16565b610a176008546107f287600754610fc390919063ffffffff16565b92915050565b60046020908152600092835260408084209091529082529020805460019091015482565b60008060038481548110610d33577f4e487b7100000000000000000000000000000000000000000000000000000000600052603260045260246000fd5b600091825260208083208784526004808352604080862073ffffffffffffffffffffffffffffffffffffffff8a8116885294528086209482029092016003810154815493517f70a0823100000000000000000000000000000000000000000000000000000000815291975094959392909216916370a0823191610db8913091016115fc565b60206040518083038186803b158015610dd057600080fd5b505afa158015610de4573d6000803e3d6000fd5b505050506040513d601f19601f82011682018060405250810190610e08919061150a565b9050836002015443118015610e1c57508015155b15610e7c576000610e31856002015443610c63565b90506000610e586005546105df88600101546107f260025487610fab90919063ffffffff16565b9050610e77610e70846105df8464e8d4a51000610fab565b8590610f98565b935050505b610ea483600101546105e564e8d4a510006105df868860000154610fab90919063ffffffff16565b979650505050505050565b610eb7610f94565b73ffffffffffffffffffffffffffffffffffffffff16610ed5610c47565b73ffffffffffffffffffffffffffffffffffffffff1614610f22576040517f08c379a00000000000000000000000000000000000000000000000000000000081526004016103b6906117b2565b73ffffffffffffffffffffffffffffffffffffffff8116610f6f576040517f08c379a00000000000000000000000000000000000000000000000000000000081526004016103b6906116f8565b61082e81611208565b60015473ffffffffffffffffffffffffffffffffffffffff1681565b3390565b6000610fa48284611900565b9392505050565b6000610fa48284611951565b6000610fa48284611918565b6000610fa4828461198e565b6001546040517f70a0823100000000000000000000000000000000000000000000000000000000815260009173ffffffffffffffffffffffffffffffffffffffff16906370a08231906110269030906004016115fc565b60206040518083038186803b15801561103e57600080fd5b505afa158015611052573d6000803e3d6000fd5b505050506040513d601f19601f82011682018060405250810190611076919061150a565b9050808211156110b2576040517f08c379a00000000000000000000000000000000000000000000000000000000081526004016103b6906118b2565b6001546040517fa9059cbb00000000000000000000000000000000000000000000000000000000815273ffffffffffffffffffffffffffffffffffffffff9091169063a9059cbb9061110a908690869060040161164e565b602060405180830381600087803b15801561112457600080fd5b505af1158015611138573d6000803e3d6000fd5b505050506040513d601f19601f8201168201806040525081019061115c91906114d6565b50505050565b6112038363a9059cbb60e01b848460405160240161118192919061164e565b604080517fffffffffffffffffffffffffffffffffffffffffffffffffffffffffffffffe08184030181529190526020810180517bffffffffffffffffffffffffffffffffffffffffffffffffffffffff167fffffffff000000000000000000000000000000000000000000000000000000009093169290921790915261129e565b505050565b6000805473ffffffffffffffffffffffffffffffffffffffff8381167fffffffffffffffffffffffff0000000000000000000000000000000000000000831681178455604051919092169283917f8be0079c531659141344cd1fd0a4f28419497f9722a3daafe3b4186f6b6457e09190a35050565b61115c846323b872dd60e01b8585856040516024016111819392919061161d565b6000611300826040518060400160405280602081526020017f5361666545524332303a206c6f772d6c6576656c2063616c6c206661696c65648152508573ffffffffffffffffffffffffffffffffffffffff166113549092919063ffffffff16565b805190915015611203578080602001905181019061131e91906114d6565b611203576040517f08c379a00000000000000000000000000000000000000000000000000000000081526004016103b690611855565b6060611363848460008561136b565b949350505050565b6060824710156113a7576040517f08c379a00000000000000000000000000000000000000000000000000000000081526004016103b690611755565b6113b085611461565b6113e6576040517f08c379a00000000000000000000000000000000000000000000000000000000081526004016103b6906117e7565b6000808673ffffffffffffffffffffffffffffffffffffffff16858760405161140f91906115e0565b60006040518083038185875af1925050503d806000811461144c576040519150601f19603f3d011682016040523d82523d6000602084013e611451565b606091505b5091509150610ea4828286611467565b3b151590565b60608315611476575081610fa4565b8251156114865782518084602001fd5b816040517f08c379a00000000000000000000000000000000000000000000000000000000081526004016103b691906116a7565b6000602082840312156114cb578081fd5b8135610fa481611a39565b6000602082840312156114e7578081fd5b8151610fa481611a5b565b600060208284031215611503578081fd5b5035919050565b60006020828403121561151b578081fd5b5051919050565b60008060408385031215611534578081fd5b82359150602083013561154681611a39565b809150509250929050565b600080600060608486031215611565578081fd5b83359250602084013561157781611a39565b9150604084013561158781611a5b565b809150509250925092565b600080604083850312156115a4578182fd5b50508035926020909101359150565b6000806000606084860312156115c7578283fd5b8335925060208401359150604084013561158781611a5b565b600082516115f28184602087016119a5565b9190910192915050565b73ffffffffffffffffffffffffffffffffffffffff91909116815260200190565b73ffffffffffffffffffffffffffffffffffffffff9384168152919092166020820152604081019190915260600190565b73ffffffffffffffffffffffffffffffffffffffff929092168252602082015260400190565b73ffffffffffffffffffffffffffffffffffffffff94909416845260208401929092526040830152606082015260800190565b60006020825282518060208401526116c68160408501602087016119a5565b601f017fffffffffffffffffffffffffffffffffffffffffffffffffffffffffffffffe0169190910160400192915050565b60208082526026908201527f4f776e61626c653a206e6577206f776e657220697320746865207a65726f206160408201527f6464726573730000000000000000000000000000000000000000000000000000606082015260800190565b60208082526026908201527f416464726573733a20696e73756666696369656e742062616c616e636520666f60408201527f722063616c6c0000000000000000000000000000000000000000000000000000606082015260800190565b6020808252818101527f4f776e61626c653a2063616c6c6572206973206e6f7420746865206f776e6572604082015260600190565b6020808252601d908201527f416464726573733a2063616c6c20746f206e6f6e2d636f6e7472616374000000604082015260600190565b60208082526012908201527f77697468647261773a206e6f7420676f6f640000000000000000000000000000604082015260600190565b6020808252602a908201527f5361666545524332303a204552433230206f7065726174696f6e20646964206e60408201527f6f74207375636365656400000000000000000000000000000000000000000000606082015260800190565b60208082526019908201527f52455741524420414d4f554e543a204e4f5420454e4f55474800000000000000604082015260600190565b90815260200190565b918252602082015260400190565b6000821982111561191357611913611a0a565b500190565b60008261194c577f4e487b710000000000000000000000000000000000000000000000000000000081526012600452602481fd5b500490565b6000817fffffffffffffffffffffffffffffffffffffffffffffffffffffffffffffffff048311821515161561198957611989611a0a565b500290565b6000828210156119a0576119a0611a0a565b500390565b60005b838110156119c05781810151838201526020016119a8565b8381111561115c5750506000910152565b60007fffffffffffffffffffffffffffffffffffffffffffffffffffffffffffffffff821415611a0357611a03611a0a565b5060010190565b7f4e487b7100000000000000000000000000000000000000000000000000000000600052601160045260246000fd5b73ffffffffffffffffffffffffffffffffffffffff8116811461082e57600080fd5b801515811461082e57600080fdfea264697066735822122066115f28af6f8fec60782638f355d670c4481318f8a55cbe8a49e6d07b7c2a3264736f6c63430008000033",
  "devdoc": {
    "kind": "dev",
    "methods": {
      "owner()": {
        "details": "Returns the address of the current owner."
      },
      "renounceOwnership()": {
        "details": "Leaves the contract without owner. It will not be possible to call `onlyOwner` functions anymore. Can only be called by the current owner. NOTE: Renouncing ownership will leave the contract without an owner, thereby removing any functionality that is only available to the owner."
      },
      "transferOwnership(address)": {
        "details": "Transfers ownership of the contract to a new account (`newOwner`). Can only be called by the current owner."
      }
    },
    "version": 1
  },
  "userdoc": {
    "kind": "user",
    "methods": {},
    "version": 1
  },
  "storageLayout": {
    "storage": [
      {
        "astId": 7,
        "contract": "contracts/allocateStaking/CHNStaking.sol:CHNStaking",
        "label": "_owner",
        "offset": 0,
        "slot": "0",
        "type": "t_address"
      },
      {
        "astId": 3665,
        "contract": "contracts/allocateStaking/CHNStaking.sol:CHNStaking",
        "label": "rewardToken",
        "offset": 0,
        "slot": "1",
        "type": "t_contract(IERC20)728"
      },
      {
        "astId": 3667,
        "contract": "contracts/allocateStaking/CHNStaking.sol:CHNStaking",
        "label": "rewardPerBlock",
        "offset": 0,
        "slot": "2",
        "type": "t_uint256"
      },
      {
        "astId": 3671,
        "contract": "contracts/allocateStaking/CHNStaking.sol:CHNStaking",
        "label": "poolInfo",
        "offset": 0,
        "slot": "3",
        "type": "t_array(t_struct(PoolInfo)3662_storage)dyn_storage"
      },
      {
        "astId": 3678,
        "contract": "contracts/allocateStaking/CHNStaking.sol:CHNStaking",
        "label": "userInfo",
        "offset": 0,
        "slot": "4",
        "type": "t_mapping(t_uint256,t_mapping(t_address,t_struct(UserInfo)3652_storage))"
      },
      {
        "astId": 3681,
        "contract": "contracts/allocateStaking/CHNStaking.sol:CHNStaking",
        "label": "totalAllocPoint",
        "offset": 0,
        "slot": "5",
        "type": "t_uint256"
      },
      {
        "astId": 3683,
        "contract": "contracts/allocateStaking/CHNStaking.sol:CHNStaking",
        "label": "startBlock",
        "offset": 0,
        "slot": "6",
        "type": "t_uint256"
      },
      {
        "astId": 3685,
        "contract": "contracts/allocateStaking/CHNStaking.sol:CHNStaking",
        "label": "bonusEndBlock",
        "offset": 0,
        "slot": "7",
        "type": "t_uint256"
      },
      {
        "astId": 3687,
        "contract": "contracts/allocateStaking/CHNStaking.sol:CHNStaking",
        "label": "BONUS_MULTIPLIER",
        "offset": 0,
        "slot": "8",
        "type": "t_uint256"
      }
    ],
    "types": {
      "t_address": {
        "encoding": "inplace",
        "label": "address",
        "numberOfBytes": "20"
      },
      "t_array(t_struct(PoolInfo)3662_storage)dyn_storage": {
        "base": "t_struct(PoolInfo)3662_storage",
        "encoding": "dynamic_array",
        "label": "struct CHNStaking.PoolInfo[]",
        "numberOfBytes": "32"
      },
      "t_contract(IERC20)728": {
        "encoding": "inplace",
        "label": "contract IERC20",
        "numberOfBytes": "20"
      },
      "t_mapping(t_address,t_struct(UserInfo)3652_storage)": {
        "encoding": "mapping",
        "key": "t_address",
        "label": "mapping(address => struct CHNStaking.UserInfo)",
        "numberOfBytes": "32",
        "value": "t_struct(UserInfo)3652_storage"
      },
      "t_mapping(t_uint256,t_mapping(t_address,t_struct(UserInfo)3652_storage))": {
        "encoding": "mapping",
        "key": "t_uint256",
        "label": "mapping(uint256 => mapping(address => struct CHNStaking.UserInfo))",
        "numberOfBytes": "32",
        "value": "t_mapping(t_address,t_struct(UserInfo)3652_storage)"
      },
      "t_struct(PoolInfo)3662_storage": {
        "encoding": "inplace",
        "label": "struct CHNStaking.PoolInfo",
        "members": [
          {
            "astId": 3655,
            "contract": "contracts/allocateStaking/CHNStaking.sol:CHNStaking",
            "label": "stakeToken",
            "offset": 0,
            "slot": "0",
            "type": "t_contract(IERC20)728"
          },
          {
            "astId": 3657,
            "contract": "contracts/allocateStaking/CHNStaking.sol:CHNStaking",
            "label": "allocPoint",
            "offset": 0,
            "slot": "1",
            "type": "t_uint256"
          },
          {
            "astId": 3659,
            "contract": "contracts/allocateStaking/CHNStaking.sol:CHNStaking",
            "label": "lastRewardBlock",
            "offset": 0,
            "slot": "2",
            "type": "t_uint256"
          },
          {
            "astId": 3661,
            "contract": "contracts/allocateStaking/CHNStaking.sol:CHNStaking",
            "label": "accCHNPerShare",
            "offset": 0,
            "slot": "3",
            "type": "t_uint256"
          }
        ],
        "numberOfBytes": "128"
      },
      "t_struct(UserInfo)3652_storage": {
        "encoding": "inplace",
        "label": "struct CHNStaking.UserInfo",
        "members": [
          {
            "astId": 3649,
            "contract": "contracts/allocateStaking/CHNStaking.sol:CHNStaking",
            "label": "amount",
            "offset": 0,
            "slot": "0",
            "type": "t_uint256"
          },
          {
            "astId": 3651,
            "contract": "contracts/allocateStaking/CHNStaking.sol:CHNStaking",
            "label": "rewardDebt",
            "offset": 0,
            "slot": "1",
            "type": "t_uint256"
          }
        ],
        "numberOfBytes": "64"
      },
      "t_uint256": {
        "encoding": "inplace",
        "label": "uint256",
        "numberOfBytes": "32"
      }
    }
  }
}